S0030000FC
S10801008E00FF200247
S1130107CE0183BDE115CE01A7BDE115BD0122CE08
S113011701CABDE115BD01417EE1037F01057F01F0
S113012706CE025D095FBD023508A7005C26058679
S11301372EBDE10F8CDEFF26ED397F01057F010619
S1130147CE025D095FBD023508A100261C43A70046
S1130157A10026155C2605862EBDE10F8CDEFF2641
S1130167E4FF0105CE01E02006FF0105CE0212BD22
S1130177E115CE0105BDE11BBDE121390D0A4D4550
S1130187434220363830322043505520436172644D
S1130197204D656D6F727920436865636B0D0A04A2
S11301A746696C6C696E67206D656D6F727920772F
S11301B76974682072616E646F6D20646174613A5A
S11301C70D0A040D0A566572696679696E67206DB2
S11301D7656D6F72793A0D0A040D0A4D656D6F727C
S11301E77920436865636B2053756363657373662E
S11301F7756C2120546F70206F6620557361626C93
S113020765204D656D6F72792024040D0A4D656D67
S11302176F727920436865636B204661696C656416
S113022721204572726F722061742024070437B647
S113023701060C490C49BB0105F601060C59490C8A
S113024759490CFB0106B901050CCB198B36B701CB
S109025705F7010633392E
S9030000FC
